:100000000C94B0030C94D8030C94D8030C94D8032C
:100010000C94D8030C94D8030C94E50B0C94D803DF
:100020000C94D8030C94D8030C94D8030C94D803E4
:100030000C94D8030C94D8030C94D8030C94D803D4
:100040000C949B0B0C94D8030C94690B0C94430BED
:100050000C94D8030C94D8030C94D8030C94D803B4
:100060000C94D8030C94D80300000000250028004D
:100070002B0000000008000201000003040700003C
:1000800000000000000000000000240027002A00FB
:10009000010204081020408001020408102001021F
:1000A00004081020040404040404040402020202EC
:1000B00002020303030303032C507265616D626C3B
:1000C000655F002C49514E6F726D616C002C495177
:1000D000496E766572746564002C53796E63576F50
:1000E00072645F3078004F6666004F6E002C4C449F
:1000F000524F5F002C4352343A002C425700687A2A
:100100002C5346002C004E4F494445410043414486
:1001100000525853494E474C45005258434F4E5495
:10012000494E554F555300465352580054580046B7
:1001300053545800535444425900534C45455000C1
:100140004F6666004F6E002C4C4E41626F6F7374A9
:100150004C465F004F6666004F6E002C4C4E41626D
:100160006F6F737448465F002C4C4E416761696E37
:100170005F004F6666004F6E002C41474361757407
:100180006F5F004F6666004F6E002C4352435F0066
:100190002C4578706C69636974002C496D706C69CA
:1001A0006369740046534B004C6F5261002C5061E0
:1001B000636B65744D6F64655F002C56657273697F
:1001C0006F6E5F002C0020003000202000300030D7
:1001D00078005265672020202030202031202032F6
:1001E00020203320203420203520203620203720A6
:1001F0002038202039202041202042202043202068
:1002000044202045202046004E6F206465766963B7
:100210006520726573706F6E64696E670A00207383
:1002200075636365737366756C6C7920636F6E6656
:100230006967757265640A00535831323758006E29
:100240006F646520616464723A2000536574746958
:100250006E6720506F7765723A20004E6F726D6145
:100260006C20492F510A004C6F5261204465766919
:10027000636520666F756E640A0041546D65676141
:10028000333238502064657465637465640A0041D4
:10029000726475696E6F204E616E6F20646574655F
:1002A000637465640A004C6F52612074656D7065FB
:1002B0007261747572652073656E736F722C206540
:1002C0007874656E6465642076657273696F6E0A12
:1002D0000052656164696E672000414243444546AF
:1002E0004748494A4B4C4D4E4F5051525354555626
:1002F0005758595A6162636465666768696A6B6CCE
:100300006D6E6F707172737475767778797A30313B
:1003100032333435363738392B2F005B62617365E1
:100320003634204C6F526157414E20484541444578
:10033000522B4349504845522B4D49435D3A0020CA
:100340000030004D4844525B315D207C204465768E
:10035000416464725B345D207C20464374726C5B44
:10036000315D207C2046436E745B325D207C2046EC
:10037000506F72745B315D207C20456E63727970C2
:100380007465645061796C6F6164207C204D4943D1
:100390005B345D0A007472616E736D6974746564B8
:1003A000204C6F526157414E2D6C696B6520706116
:1003B000636B65743A0A0063616C63756C617465A4
:1003C000204D49432077697468204E776B534B6505
:1003D000790A0020003000656E637279707465647C
:1003E000207061796C6F61640A00456E6372797088
:1003F00074696E670A0020003000706C61696E20BD
:100400007061796C6F6164206865780A002D2D3EFB
:100410002061626F72740A002D2D3E207265747225
:10042000790A0020444946533D33534946533D2001
:10043000002D2D3E207761697420666F72200023A5
:10044000310A004F4B310A002D2D3E2043414420FC
:10045000002D2D3E204353310A002C4E4F5F50415A
:10046000434B45545F435243002C52585F54494D0F
:10047000454F5554002C54585F54494D454F5554E1
:10048000002C4952515F52585F444F4E45002C4951
:1004900052515F4352435F4552524F52002C4952D2
:1004A000515F4845414445525F56414C4944002CF8
:1004B0004952515F54585F444F4E45002C495251A8
:1004C0005F4341445F444F4E45002C4952515F46C3
:1004D0005348535F4348414E47455F4348414E4E62
:1004E000454C002C4952515F4341445F41435449BC
:1004F000564954595F4445544543544544004E6F52
:1005000020525820646F6E6520616E6420686561BA
:100510006465722076616C6964206F6E6C792C2042
:10052000636F756C6420626520435243206572726C
:100530006F72005D0A00445B003100320034003805
:100540000057616B652066726F6D20706F77657202
:1005500020736176696E67206D6F64650A0053775A
:100560006974636820746F20706F7765722073619F
:1005700076696E67206D6F64650A004E6F20646F48
:10058000776E6C696E6B0A00556E7265636F676E8D
:10059000697A656420636D640A00546F67676C65EF
:1005A000204C4544206F6E2070696E2000536574A6
:1005B00020647574792D6379636C6520746F2000F5
:1005C000536574204C6F5261206E6F6465206164C6
:1005D000647220746F200050617273696E672063CB
:1005E0006F6D6D616E640A00200030006672616D8F
:1005F00065206865780A00492F51206261636B208D
:10060000746F206E6F726D616C0057616974206643
:100610006F7220696E636F6D696E67207061636BC6
:1006200065742D5258005761697420666F722000FE
:10063000496E76657274696E6720492F5120666F26
:1006400072205258004C6F52612053656E742069BD
:100650006E20004C6F526120706B742073657120A6
:10066000004C6F526120706B742073697A652000B2
:100670002C4952517265672C0053656E6445727245
:100680006F722C00534E52206F66207472616E732D
:100690006D697474656420706B74206973200052F6
:1006A000656365697665642041434B2066726F6DB2
:1006B00020004352432C00656E642D6465766963A7
:1006C00065207573657320656E63617073756C6109
:1006D000746564204C6F526157414E207061636BAA
:1006E000657420666F726D6174206F6E6C79206620
:1006F0006F7220656E6372797074696F6E0A005252
:1007000065616C207061796C6F61642073697A65D2
:10071000206973200053656E64696E6720004D6523
:10072000616E2074656D702069732000556E6B6E6C
:100730006F776E20446576696365005358313237B0
:100740003900535831323738005358313237370077
:100750005358313237360053583132373200FC0BA0
:1007600011241FBECFEFD8E0DEBFCDBF12E0A0E066
:10077000B1E0E6E5F7E402C005900D92A837B107B5
:10078000D9F723E0A8E7B2E001C01D92A53CB2076B
:10079000E1F713E0C0EBD3E004C02197FE010E9413
:1007A0009F20CF3AD107C9F70E94340C0C94A9239B
:1007B0000C9400008CBD9DBD089590919A039031DA
:1007C00069F4803409F44EC0803871F1882309F44B
:1007D00044C06FEF70E080E090E00895803499F1BC
:1007E00098F4803131F138F48111F3CF68E77EE17C
:1007F00080E090E00895803209F1803351F760E4A1
:1008000071E580E090E00895803739F148F4803553
:10081000F9F08036F1F664E274EF80E090E008953C
:10082000803801F18039A9F660E271EA87E090E052
:10083000089560EA78E280E090E0089560EF7CE35C
:1008400080E090E0089560EE79E780E090E0089520
:1008500064EE72EA80E090E0089568E478EE81E06A
:1008600090E0089560E970ED83E090E00895AF9224
:10087000BF92CF92DF92EF92FF920F931F93CF938D
:10088000DF936C017B018B01040F151FEB015E01EF
:10089000AE18BF08C017D10759F06991D601ED9184
:1008A000FC910190F081E02DC6010995892B79F723
:1008B000C501DF91CF911F910F91FF90EF90DF90D5
:1008C000CF90BF90AF900895FC01538D448D252F9C
:1008D00030E0842F90E0821B930B541710F0CF96DA
:1008E000089501970895FC01918D828D981761F00C
:1008F000A28DAE0FBF2FB11D5D968C91928D9F5F23
:100900009F73928F90E008958FEF9FEF0895FC0101
:10091000918D828D981731F0828DE80FF11D858DB4
:1009200090E008958FEF9FEF0895FC01918D228D47
:10093000892F90E0805C9F4F821B91098F739927CC
:1009400008958FEE92E00E94950421E0892B09F42E
:1009500020E0822F089580E090E0892B29F00E940A
:10096000A10481110C9400000895FC01A48DA80F2E
:10097000B92FB11DA35ABF4F2C91848D90E00196E1
:100980008F739927848FA689B7892C93A089B18901
:100990008C91837080648C93938D848D981306C0A2
:1009A0000288F389E02D80818F7D80830895EF9206
:1009B000FF920F931F93CF93DF93EC0181E0888F19
:1009C0009B8D8C8D98131AC0E889F989808185FFE9
:1009D00015C09FB7F894EE89FF896083E889F9898B
:1009E00080818370806480839FBF81E090E0DF918D
:1009F000CF911F910F91FF90EF900895F62E0B8DE0
:100A000010E00F5F1F4F0F731127E02E8C8D8E119A
:100A10000CC00FB607FCFACFE889F989808185FF01
:100A2000F5CFCE010E94B504F1CFEB8DEC0FFD2F79
:100A3000F11DE35AFF4FF0829FB7F8940B8FEA89BC
:100A4000FB8980818062CFCF0F931F93CF93DF9379
:100A50008C01D0E0C0E0F801EC0FFD1F649166232B
:100A600041F08FEE92E00E94D704892B11F021967D
:100A7000F2CFCE01DF91CF911F910F910895809118
:100A80009A038231B1F038F4803161F0813171F034
:100A90008CE297E009C0833179F08431C9F78BE3A8
:100AA00097E002C087E597E00C94240580E597E085
:100AB000FBCF89E497E0F8CF82E497E0F5CFCF93BE
:100AC000DF93EC01888D8823B9F0AA89BB89E88976
:100AD000F9898C9185FD03C0808186FD0DC00FB61C
:100AE00007FCF7CF8C9185FFF2CF808185FFEDCF9A
:100AF000CE010E94B504E9CFDF91CF91089590E037
:100B0000FC01EE58FF4F2491FC01E057FF4F349158
:100B1000FC01EC55FF4FE491EE23C9F0222339F09C
:100B2000233001F1A8F4213019F1223029F1F0E04D
:100B3000EE0FFF1FE859FF4FA591B4918FB7F894BE
:100B4000EC91611126C030953E233C938FBF0895F0
:100B50002730A9F02830C9F0243049F7809180006F
:100B60008F7D03C0809180008F7780938000DFCFDE
:100B700084B58F7784BDDBCF84B58F7DFBCF80912B
:100B8000B0008F778093B000D2CF8091B0008F7D7E
:100B9000F9CF3E2BDACFCF93DF9390E0FC01E05703
:100BA000FF4F24918C559F4FFC0184918823D1F0F5
:100BB00090E0880F991FFC01EA57FF4FA591B4916F
:100BC000FC01E859FF4FC591D49161110EC09FB748
:100BD000F8948C91E22FE0958E238C932881E22368
:100BE000E8839FBFDF91CF9108958FB7F894EC9180
:100BF000E22BEC938FBFF6CF3FB7F89480918D0234
:100C000090918E02A0918F02B091900226B5A89B80
:100C100005C02F3F19F00196A11DB11D3FBFBA2F8E
:100C2000A92F982F8827BC01CD01620F711D811D4E
:100C3000911D42E0660F771F881F991F4A95D1F7D3
:100C400008958F929F92AF92BF92CF92DF92EF92D0
:100C5000FF926B017C010E94FC054B015C01C114F9
:100C6000D104E104F104B9F00E94FC056819790986
:100C70008A099B09683E73408105910580F321E054
:100C8000C21AD108E108F10888EE880E83E0981EA8
:100C9000A11CB11CE4CFFF90EF90DF90CF90BF90EC
:100CA000AF909F908F9008952FB7F894609189022C
:100CB00070918A0280918B0290918C022FBF0895CF
:100CC0004115510529F4EAE7F0E080818F778083B0
:100CD0006A307105B9F0CB01880F991F880F991FF1
:100CE000807267706860682B88E10FB6F894A895E9
:100CF000809360000FBE60936000E0E6F0E08081CA
:100D000080648083232BD9F483B7817F846083BF81
:100D1000F89483B7816083BF85B7806685BF8F7D78
:100D200085BF7894889583B78E7F83BF7894452B51
:100D300029F4EAE7F0E0808180688083089583B732
:100D4000817F846083BFF89483B7816083BF789488
:100D5000889583B78E7F83BF7894E9CFDC01FB0150
:100D60008081869586958C93208180E1289F9001D3
:100D700011242073818182958F70280F11962C93F6
:100D80001197218184E0289F900111242C73828186
:100D90008295869586958370280F12962C931297CC
:100DA00082818F7313968C930895FB01AC01405F91
:100DB0005F4FDC012D91CD013191119723272C93A9
:100DC00084179507B1F70895FC0120E030E02F303B
:100DD00029F09181392F331F3327331F9191DF0180
:100DE0001197990F930F9C932F5F203179F70895F6
:100DF0000F931F93CF93DF9300D000D0CDB7DEB712
:100E0000FB01948536852785458549833A832B8365
:100E10009C83BE016B5F7F4F9E012F5F3F4FD901C7
:100E20009D919D018D0101501109492F42954F70EF
:100E3000A92FAF70B0E14B9FA00111244D5C5E4F14
:100E4000A40FB52FB11D9C91D8019C93261737078D
:100E500031F791E05BE1813039F0492F440F97FD84
:100E600045278150942FF7CF8981982799838F0147
:100E700094E0DE011196A801FA018191AF016D9114
:100E80008627BF0161507109FB018083BD0161505C
:100E90007109FB018083A217B30771F791500C5FB2
:100EA0001F4F9111E6CF0F900F900F900F90DF9191
:100EB000CF911F910F910895E8E7F2E08481958129
:100EC0009483968195839781968387838085928585
:100ED000908782878185938591878387878596858B
:100EE0009787958596879485958784870895CF936E
:100EF00028E732E0BC01605F7F4FDC01F90140E090
:100F0000CD9150815C2750834F5F34964430C1F7B8
:100F10002F5F3F4F04968617970779F7CF91089573
:100F20003F924F925F926F927F928F929F92AF9279
:100F3000BF92CF92DF92EF92FF920F931F93CF93C6
:100F4000DF93CDB7DEB768970FB6F894DEBF0FBE5C
:100F5000CDBF8C0128E7C22E22E0D22EAC01405F2B
:100F60005F4FC6017801FC01D70120E03D9130833D
:100F70002F5F34962430D1F724E0E20EF11C019665
:100F8000E416F50681F7FB01DE011196CB014096D0
:100F90005A2E6B2E21912D93E817F907D9F7852D3D
:100FA000962D0E947707442443948CE7A82E82E074
:100FB000B82E4E0159E1850E911C9BE1392E88E730
:100FC00092E044E0DC01712CEC912E2F22952F70E1
:100FD000EF7050E1259F900111242D5C3E4FE20FF0
:100FE000F32FF11D20812C937394149624E0721238
:100FF000EBCF415001964111E5CF0E945C07E8E735
:10100000F2E0CE014596BE016F5E7F4F9F01D90190
:101010005C91DC015D93CD01452F440F57FD83C0EA
:10102000DB014C932C5F3F4F6F5F7F4F8816990613
:1010300071F78E89398938272F89688D9A89922787
:101040009627432F492741934D895B8994279527FC
:1010500093839C898627842785278927878324274C
:10106000292732273387AE16BF0659F6652D762D10
:10107000842D0E94F806852D962D0E9477074394B3
:10108000BAE04B129CCF88E792E0DC0140E0EC91A3
:101090002E2F22952F70EF7050E1259F9001112483
:1010A0002D5C3E4FE20FF32FF11D20812C934F5FFB
:1010B0001496443061F77A9401967110E6CF0E943D
:1010C0005C07652D762D8AE00E94F806852D962D09
:1010D0000E947707D801F60180E090819D938F5F91
:1010E00034968430D1F78FEFC81AD80A0C5F1F4F9F
:1010F0000E151F0579F768960FB6F894DEBF0FBE80
:10110000CDBFDF91CF911F910F91FF90EF90DF90B6
:10111000CF90BF90AF909F908F907F906F905F9097
:101120004F903F90089543257BCF08958EBD0000DA
:101130000DB407FEFDCF8EB508951F93CF93DF93B7
:10114000182F80E591E00E94DA03CCE8D3E060E05C
:1011500088810E947F05812F8F770E94960880E00A
:101160000E949608182F61E088810E947F05812FD8
:10117000DF91CF911F91089589E10E949D0887FF1B
:1011800014C02FEF30E0A901481B5109CA0157FDD7
:101190000396959587959595879591958195910954
:1011A0008093960380919603089586958695F8CF4F
:1011B0008CE10E949D0886FD0DC080919D038823CF
:1011C00049F08091980390919903946090939903CA
:1011D0008093980382E10E949D08209198033091AA
:1011E0009903820F932F911D089580919A03803166
:1011F00031F48DE10E949D08807C0C94DD038DE12B
:101200000E949D08807FF9CF0F931F93CF93DF93A8
:10121000082F162F80E591E00E94DA03CCE8D3E096
:1012200060E088810E947F05802F80680E94960878
:10123000812F0E94960861E08881DF91CF911F91F4
:101240000F910C947F0566E683E30E94040969E12F
:101250008BE30C940409882321F00E94230980E089
:10126000089567E283E30E9404096DE18BE30E9425
:101270000409F5CF6091A0036F5F81E00C9404092D
:10128000CF93DF93CCE8D3E08C859D8588279D871D
:101290008C876FEF82E10E9404098C859D859927D8
:1012A0009D878C87DF91CF910895FC0101900020EC
:1012B000E9F73197AF01481B590BBC018FEE92E063
:1012C0000C9437048F929F92AF92BF920F931F930B
:1012D000CF93DF93CDB7DEB7A1970FB6F894DEBFFB
:1012E0000FBECDBF19A2423008F44AE08E010F5D57
:1012F0001F4F842E912CB12CA12CA50194010E948A
:10130000171EE62FB901CA01EA30F4F4E05DD801F6
:10131000EE938D01232B242B252B79F790E080E091
:10132000109719F0CD010E945509A1960FB6F894B7
:10133000DEBF0FBECDBFDF91CF911F910F91BF9048
:10134000AF909F908F900895E95CE1CF0C94620973
:10135000AB01682F70E090E080E00C94A609AB012F
:10136000BC0190E080E00C94A609CF93DF938BE45E
:1013700092E00E945509EC0189E492E00E9455092F
:101380008C0F9D1FDF91CF910895009711F00C9461
:10139000550990E080E00895CF93DF930E942405E3
:1013A000EC0189E492E00E9455098C0F9D1FDF91AA
:1013B000CF910895CF93DF936AE070E00E94A8096F
:1013C000EC0189E492E00E9455098C0F9D1FDF918A
:1013D000CF910895CF92DF92EF92FF92CF93DF9358
:1013E00097FF1BC06B017C016DE28FEE92E00E94C3
:1013F000D704EC0166277727CB016C197D098E098C
:101400009F094AE00E9462098C0F9D1FDF91CF91D6
:10141000FF90EF90DF90CF9008954AE0DF91CF9159
:10142000FF90EF90DF90CF900C946209CF93DF9301
:101430004AE00E946209EC0189E492E00E945509A9
:101440008C0F9D1FDF91CF910895CF92DF92EF9285
:10145000FF920F931F93CF93DF93D82EF92ED62FA1
:10146000142FC22ECE2D0E943A098EE00E949D08B4
:10147000682F8DE00E94040980E591E00E94DA0364
:1014800060E080918C030E947F0580E80E949608AE
:101490008C2D0E949608812F0E949608802F0E9412
:1014A00096088091B1030E94960884E08D0F809386
:1014B00097030D2D1F2D7801ED0EF11CE016F1069E
:1014C00031F0F80181918F010E949608F7CF61E019
:1014D00080918C030E947F056091970382E20E94B5
:1014E0000409CF3F59F180919A03DAE5803109F080
:1014F000DDE469E08AE00E94040964E88D2F0E941F
:101500000409D0E1CB3024F4DBE0C6300CF4D7E0A2
:101510008091B3036C2F90919A03903109F04DC0E4
:1015200061E06C0F882319F0C2506C2F606889E06D
:101530000E9404096D2F8BE00E94040960E081E1A4
:101540000E94040960E780E40E9404090E944009A7
:101550006BE881E00E9404098091B1038F5F809362
:10156000B1030E9454066B017C01F0E1CF0EF7E25B
:10157000DF1EE11CF11C82E10E949D08C82FC8708B
:1015800083FD07C00E9454066C157D058E059F05DE
:1015900090F30E943A09C11116C080E091E0909347
:1015A00099038093980380E0DF91CF911F910F9171
:1015B000FF90EF90DF90CF900895882311F0625054
:1015C00060686067B4CF1092BD0380919703ECCF41
:1015D000FF920F931F93CF93DF93CDB7DEB72A9778
:1015E0000FB6F894DEBF0FBECDBF8C0127E0E9E255
:1015F000F1E0CE010196DC0101900D922A95E1F710
:10160000FE01389623E0DF011D922A95E9F7DC01FF
:1016100030E020E0F80140815181FB01E40FF51F2B
:10162000F080F3E2FF16E9F0FB0101900020E9F7FA
:101630003197E61BF70B4E175F0798F4FC010190FA
:101640000020E9F73197E81BF90B2E173F0748F404
:10165000FD924F5F5F4FF801518340832F5F3F4FF3
:10166000D9CF280F391FD9011C920E94741D2A96C8
:101670000FB6F894DEBF0FBECDBFDF91CF911F91A3
:101680000F91FF9008951F920F920FB60F921124A1
:101690002F933F934F935F936F937F938F939F937A
:1016A000AF93BF93EF93FF938FEE92E00E94B50448
:1016B000FF91EF91BF91AF919F918F917F916F912A
:1016C0005F914F913F912F910F900FBE0F901F9000
:1016D00018951F920F920FB60F9211242F938F938C
:1016E0009F93EF93FF93E091FF02F09100038081BD
:1016F000E0910503F091060382FD1BC0908180916B
:1017000008038F5F8F7320910903821741F0E091E6
:101710000803F0E0E151FD4F958F80930803FF919E
:10172000EF919F918F912F910F900FBE0F901F906F
:1017300018958081F4CF1F920F920FB60F9211244B
:101740002F933F938F939F93AF93BF938091890281
:1017500090918A02A0918B02B0918C023091880204
:1017600023E0230F2D3758F50196A11DB11D2093BD
:1017700088028093890290938A02A0938B02B0938F
:101780008C0280918D0290918E02A0918F02B09177
:1017900090020196A11DB11D80938D0290938E023F
:1017A000A0938F02B0939002BF91AF919F918F91C0
:1017B0003F912F910F900FBE0F901F90189526E824
:1017C000230F0296A11DB11DD2CF1F920F920FB60B
:1017D0000F9211248F930FB6F894A8958091600012
:1017E000886180936000109260000FBE8F910F900F
:1017F0000FBE0F901F901895EFEEF2E01382128249
:1018000088EE93E0A0E0B0E084839583A683B7835D
:101810008BE392E09183808385EC90E095878487C9
:1018200084EC90E09787868780EC90E0918B808BAA
:1018300081EC90E0938B828B82EC90E0958B848B93
:1018400086EC90E0978B868B118E128E138E148E01
:10185000809124018093C403ECE8F3E017A215A261
:1018600016A214AA13AA0895CF93DF93CDB7DEB7BB
:10187000C25DD1090FB6F894DEBF0FBECDBF78941C
:1018800084B5826084BD84B5816084BD85B5826085
:1018900085BD85B5816085BD80916E008160809336
:1018A0006E0010928100809181008260809381009F
:1018B00080918100816080938100809180008160AF
:1018C000809380008091B10084608093B10080910A
:1018D000B00081608093B00080917A008460809332
:1018E0007A0080917A00826080937A0080917A00F9
:1018F000816080937A0080917A00806880937A007A
:101900001092C10060E08EE00E94CB0561E089E0AA
:101910000E94CB0568EB7BE080E090E00E9421060E
:10192000E091FF02F091000382E08083E091FB02EE
:10193000F091FC021082E091FD02F091FE0283E33F
:10194000808310920703E0910303F091040386E083
:101950008083E0910103F0910203808180618083A4
:10196000E0910103F0910203808188608083E0911F
:101970000103F0910203808180688083E09101037C
:10198000F091020380818F7D808386EA92E00E943D
:1019900024058FE892E00E9424058AE792E00E94E5
:1019A00024051FB7F89480919102811127C0EEEAB7
:1019B000F0E08491EAE9F0E09491E82FF0E0EE0F96
:1019C000FF1FEA57FF4FA591B491EC91E92321F451
:1019D00061E08AE00E947F0561E08AE00E94CB0519
:1019E0008CB580618CBD8CB580648CBD61E08DE070
:1019F0000E94CB0561E08BE00E94CB0580919102B3
:101A00008F5F809391021FBF8AE080938C0384E0F4
:101A100080938D038FEF80938E0380938F03809349
:101A2000900391E190939A0380939B0380939C038E
:101A300061E08AE00E94CB0561E080918C030E9406
:101A40007F0561E080918D030E94CB0560E080916D
:101A50008D030E947F0580918E0387FD03C060E0A7
:101A60000E94CB0580918F0387FD03C060E00E9438
:101A7000CB058091900387FD03C060E00E94CB05F9
:101A800080918D0390919A03903109F0EAC161E051
:101A90000E947F0562E070E080E090E00E942106F5
:101AA00060E080918D030E947F0564E170E080E03A
:101AB00090E00E94210687E00E949D08182F61E0B7
:101AC000680F87E00E94040987E00E949D08082FA4
:101AD000612F87E00E940409812F90E0019608178A
:101AE000190609F065C487E692E00E94240568EEB5
:101AF00073E080E090E00E9421060E943A0981E0B4
:101B00000E949D08182F80E88093A00360E881E080
:101B10000E940409612F606881E00E94040988ED39
:101B200099EBA1EDB9E18093A7039093A803A0934B
:101B3000A903B093AA031092AB031092AC031092C6
:101B4000AD031092AE038CE68093A1038BE48093E7
:101B5000A20383E38093A3036CE686E00E9404095A
:101B60006091A20387E00E9404096091A30388E0CA
:101B70000E94040981E00E949D08182F60E081E026
:101B80000E94040961E081E00E9404098BE30E9445
:101B90009D08682F60648BE30E94040960E081E087
:101BA0000E940409612F81E00E9404096AE070E04C
:101BB00080E090E00E9421068EE10E949D088F70D7
:101BC00060EC680F8EE10E94040980919A038031D5
:101BD00009F452C18DE10E949D088F7060E7680F83
:101BE0008DE10E9404098DE10E949D08817F62E0E1
:101BF000680F8DE10E94040986E20E949D08682F0B
:101C0000686086E20E94040963E081E30E9404099F
:101C10006AE087E30E94040960E08EE00E94040904
:101C200060E08FE00E94040960E080E20E94040905
:101C300068E081E20E9404096FEF82E20E940409D9
:101C400080E00E942B0981E080939D0380919A039C
:101C5000803109F429C18DE10E949D08682F6E7FB3
:101C60008DE10E9404098EE10E949D08682F646046
:101C70008EE10E94040962E189E30E9404098091D7
:101C80009A036BE3803109F463E28CE00E9404095B
:101C900060E081E10E94040960E780E40E94040999
:101CA00081E08093B30380E00E942B098BE592E0F2
:101CB0000E9424050E94B5090E943F0584E091E03E
:101CC0000E94240586E00E949D08182F87E00E944C
:101CD0009D08082F88E00E949D08412F50E070E089
:101CE00060E0762F652F542F4427400F511D611D52
:101CF000711D762F652F542F44274A015B01880EF2
:101D0000911CA11CB11CC501B4010E94621F20E0FE
:101D100034E244E752E40E94192020E034E244E730
:101D200059E40E94BA1E20E034E244E759E40E94DC
:101D300019200E94331F4AE050E00E94A6098EEF4E
:101D400090E00E9424058EE10E949D086AE070E008
:101D500082958F700E94A8098AEF90E00E94240566
:101D600080919A03803109F0AEC08DE10E949D08F8
:101D7000807C0E94DD034AE050E00E94A60984EFC7
:101D800090E00E9424058DE10E949D0820919A0315
:101D900090E0203109F49CC09595879587708C5F01
:101DA0006AE070E00E94A8098DEE90E00E94240590
:101DB00080919A03803109F491C086E20E949D08C7
:101DC00083FB882780F9882309F48DC08AEE90E090
:101DD0000E94240589ED90E00E94240589E30E9479
:101DE0009D0860E170E00E94A80983E30E949D08BD
:101DF00086FF7CC08DEC90E00E94240588EB90E08B
:101E00000E94240580E20E949D08182F81E20E9412
:101E10009D08212F30E0322F22276AE070E0820FE8
:101E2000932F911D0E94AF090E94B5090E943F05A2
:101E300084EC91E00E94240581E00E949D08887155
:101E4000883008F094C2E82FF0E0E75DF04F0C9482
:101E50009F20790FA211A511A811AB11AE11B111DC
:101E6000B41160E00E947F0562E070E080E090E0E5
:101E70000E94210661E015CE8DE10E949D08682F29
:101E80006F738DE10E9404098DE10E949D08877C9B
:101E900068E0680F8DE10E9404098DE10E949D08B1
:101EA000682F61608DE1AECE8DE10E949D08682FA4
:101EB0006B7F8DE10E9404098DE10E949D08682FCF
:101EC00062608DE1D6CE8DE10E949D08807F51CF6A
:101ED00073E0959587957A95E1F760CF8DE10E9443
:101EE0009D08817070CF86EE90E072CF83EC90E019
:101EF00083CF8AE391E00E9424058AEB91E00E945F
:101F0000240582E40E949D0860E170E00E94A80917
:101F10008DEA91E00E94240581E00E949D0887FFE0
:101F200029C288EA91E00E9424058DE10E949D0863
:101F300090919A03903109F420C28170882309F4AA
:101F400020C28AE991E00E9424058AE891E00E947B
:101F500024058EE10E949D0880919A03803109F446
:101F600013C28EE10E949D0882FB882780F9882396
:101F700009F410C287E891E00E94240589E791E006
:101F80000E94240580919A03803109F406C286E2FA
:101F90000E949D08847009F402C286E791E00E94C5
:101FA000240588E691E00E9424058CE00E949D08AB
:101FB0006AE070E08295869587700E94A8098BE59B
:101FC00091E00E9424058CE00E949D08837009F432
:101FD000E9C188E591E00E94240587E491E00E9430
:101FE00024058CE00E949D08887109F4DEC184E418
:101FF00091E00E9424050E94B5090E94B50982ED76
:1020000091E00E9424050E94B50910E000E08FECE9
:1020100091E00E9424050031110520F48DEC91E03F
:102020000E94240560E170E0C8010E94AF098AECBB
:1020300091E00E942405F02E50E1E52EE00E8F2D58
:102040000E949D08C82ED12C20E1C216D10420F494
:1020500088EC91E00E94240560E170E0C6010E94D6
:10206000AF0986EC91E00E942405F394FE10E7CFBF
:10207000005F1F4F0E94B5090035110541F68BE442
:1020800092E00E9424056EE070E080E090E00E9403
:10209000EA090E94B509109124011093BC038FE353
:1020A00092E00E9424056AE070E0812F0E94A80956
:1020B0000E94B50988E392E00E9424058EE192E037
:1020C0000E94240564EF71E080E090E00E94210608
:1020D0008090330290903402A0903502B090360286
:1020E000C553DF4F88829982AA82BB82CB5CD040E5
:1020F0001E0101E5200E311C9101205F3F4FC153AD
:10210000DF4F39832883CF5CD040AE014F575F4FFC
:10211000C155DF4F59834883CF5AD040CA014096FA
:10212000CF52DF4F99838883C15DD0400E9454060F
:10213000605E714B8F4F9F4F6093E9027093EA028C
:102140008093EB029093EC020E94160A60E27EE418
:1021500080E090E00E94160A61E089E00E947F051D
:1021600068EC70E080E090E00E94210605E010E05D
:10217000412C512C320140E4B42EB0927C0080916D
:102180007A00806480937A0080917A00982F90740E
:10219000CD54DF4F9883C35BD04086FDF5CF80914F
:1021A0007800C0907900DC2CC82E81ED92E00E946E
:1021B00024050D2C000CEE08FF08C701B6010E9493
:1021C000EA0989E492E00E945509C701B6010E941C
:1021D000641F23E333E343E75FE30E94192020E019
:1021E00030E44CE955E40E94192020E030E040E85A
:1021F0005AE30E94192020E030E04AEF53E40E94A5
:10220000481E20E030E040E251E40E94BA1E9B01EB
:10221000AC01C301B2010E94491E2B013C0164E6DE
:1022200070E080E090E00E9421060150110909F061
:10223000A4CF60E089E00E947F058EE197E00E94D4
:10224000240520E030E040EA50E4C301B2010E94DE
:10225000BA1E6B017C012B013C01AC019B010E9469
:102260008620882309F4A9C08CE492E00E945509D5
:102270000E94B509C553DF4F88809980AA80BB8032
:10228000CB5CD0408092990290929A02A0929B02DD
:10229000B0929C028E010F551F4F4AE0B80186E1B3
:1022A00090E00E949B1DF801BF016F5F7F4F80810E
:1022B000811116C18EE280834AE082E390E00E94A1
:1022C0009B1D1F930F9380E291E09F938F9388E56E
:1022D00092E09F938F938DE992E09F938F930E945A
:1022E000D1208C01C82E85E197E00E9424058DE95C
:1022F00092E00E94C5090E94B5098FEF96E00E9406
:1023000024056AE070E0802F0E94A8090E94B509A8
:102310002DB73EB7285F3F4F0FB6F8943EBF0FBEB4
:102320002DBF39E9E32E32E0F32ED12CDC1408F076
:10233000D9C0D7016D917D018FEE92E00E94D70444
:10234000D394F4CF84E391E0D6CD8FE291E0D3CD66
:102350008CE291E0D0CD87E291E0CDCD8AE191E0B1
:10236000CACD81E191E0C7CD8DE091E0C4CD86E09A
:1023700091E0C1CD84EA91E0D6CD82FB882780F937
:10238000DDCD80E991E0DFCD8DE10E949D0886954D
:102390008170EDCD83E891E0EFCD8EE1F9CD82E75C
:1023A00091E0FDCD84E591E016CE80E491E021CE70
:1023B00088E092E00E942405FFCF46015701E8948F
:1023C000B7F82FEF3FEF4FE75FE7C501B4010E9479
:1023D000862081110DC02FEF3FEF4FE75FE7C5016A
:1023E000B4010E94B51E18161CF480E592E03ECFA1
:1023F0002FEF3FEF4FE75FE4C701B6010E941420C3
:1024000018161CF484E592E031CF2FEF3FEF4FE731
:102410005FECC701B6010E94B51E87FDF3CF20E037
:1024200030E0A901C701B6010E94B51E87FF0BC0AD
:102430006DE28FEE92E00E94D7042601370177FA11
:10244000709477F870942AE037ED43EA5BE3C301B8
:10245000B2010E94491E2B013C010E94331F6B01F7
:102460007C010E94621F9B01AC01C301B2010E946A
:10247000481E2B013C014AE0C701B6010E946209D7
:102480006EE28FEE92E00E94D70420E030E040E25E
:1024900051E4C301B2010E9419202B013C010E94AA
:1024A000331F6B016AE070E0C6010E94AF09B601FC
:1024B00090E080E00E94621F9B01AC01C301B20169
:1024C0000E94481E20E030E040E251E40E941920C2
:1024D0000E94331FCB016AE070E00E94AF09C8CEB2
:1024E000FB01E2CE0E94B5091127F8013496CF54C2
:1024F000DF4FF983E883C15BD04087EB96E00E9411
:1025000024058DB69EB6CB54DF4F99828882C55B79
:10251000D0408DE992E00E94C5090E94B5098AEF7A
:1025200093E00E94240529E9E22E22E0F22ECF5406
:10253000DF4F88809980C15BD0409924C7018959B9
:10254000924088159905BCF48701D7018C918031A0
:1025500020F488EF93E00E942405BFEFEB1AFB0AFA
:1025600060E170E0F80180810E94A80986EF93E0A5
:102570000E942405E3CF0E94B5098AEE93E00E94F1
:1025800024057090920260909302CF54DF4FB88080
:10259000C15BD040B2949FE0B922CF54DF4FF881A5
:1025A000C15BD040FF70EF2E09F0B394FF24F39489
:1025B00009E912E0552453949E012F5F3F4F6901B2
:1025C000BF1408F443C059821A821B821C821D82E8
:1025D0001E828091C4038F838091C303888780917A
:1025E000C20389878091C1038A877B866C861D869A
:1025F0001E861F86F88A60E171E0C6010E9490077E
:10260000FB1479F0F6019801205F3F4F9191D801BA
:102610008C9189278D938D012A173B07B9F7F39485
:10262000CFCFE11002C080E1E82EF601D8019191F0
:102630008C9189278D938E2F8C198E15C0F38FEF77
:102640008E0D90E00196080F191FE9CF87ED93E0FA
:102650000E942405B9E9EB2EB2E0FB2EC70189598F
:10266000924088159905BCF48701F701808180317B
:1026700020F485ED93E00E942405FFEFEF1AFF0A96
:1026800060E170E0D8018C910E94A80983ED93E08D
:102690000E942405E3CF0E94B50980E4898340901D
:1026A000C4034A825090C3035B826090C2036C8271
:1026B0007090C1037D821E8200919202109193025C
:1026C0000F83188781E08987DE011A96E9E9F2E035
:1026D000CF0189599240881599051CF481918D93F9
:1026E000F7CFCF54DF4FA880C15BD040B9E0AB0E2D
:1026F00087EB93E00E94240580E1C155DF4FE8811C
:10270000F981CF5AD040882E11928A94E9F76E0150
:1027100021E7C20ED11CD601E82F1D92EA95E9F7F8
:102720007E01F1E6EF0EF11CD701E82F1D92EA952C
:10273000E9F7D1011D928A95E9F789E4CF56DF4F79
:102740008883C159D040CE56DF4F1882C259D0403D
:10275000CD56DF4F1882C359D040CC56DF4F188278
:10276000C459D040CB56DF4F1882C559D040CA5605
:10277000DF4F1882C659D040C956DF4F4882C7592B
:10278000D040C856DF4F5882C859D040C756DF4F97
:102790006882C959D040C656DF4F7882CA59D040A6
:1027A000C556DF4F0883CB59D040C456DF4F18833E
:1027B000CC59D040C356DF4F1882CD59D040C256B5
:1027C000DF4F1882CE59D040C156DF4F1882CF5903
:1027D000D040C056DF4FA882C05AD040BA2CB29425
:1027E000AFE0BA22BA2DBF705B2E09F0B39460E05F
:1027F00071E0CE018F579F4F0E949007CF57DF4F58
:102800001881C158D040CE018F579F4F0E94E406D7
:1028100017FF0CC0C057DF4F8881C059D04097E8E0
:102820008927C057DF4F8883C059D040FE01EF573A
:10283000FF4FD60181918D93CF52DF4F88809980D1
:10284000C15DD040E815F905A9F7D6011C91C60174
:102850000E94E40617FF05C0F601878597E88927DF
:10286000878760E071E0CE018F569F4F0E949007EE
:10287000FE01EF56FF4FCF014096D70121912D93D6
:10288000E817F907D9F7442443948E010F5F1F4FCF
:1028900048014B1428F5F8013101C8014096D101D7
:1028A00021912D93E817F907D9F7005F1F4FB70162
:1028B000C1010E94D50660E071E0C1010E9490074D
:1028C000F701D3018D913D018193C153DF4F2881E1
:1028D0003981CF5CD0402A173B0799F74394D9CF71
:1028E00051108AC0F801D101C801409621912D9361
:1028F000E817F907D9F7BE016F577F4FC1010E9452
:10290000D506B701C1010E94D50660E071E0C101A2
:102910000E949007D1018C91C555DF4F8883CB5A17
:10292000D04011968C911197C455DF4F8883CC5AB3
:10293000D04012968C911297C355DF4F8883CD5AA1
:10294000D04013968C91C255DF4F8883CE5AD04029
:10295000FE01E555FF4F90E080E02A2D30E04191E7
:10296000D901A80FB91FA80DB91D4C930196843049
:102970009105A9F7CF54DF4F1881C15BD040135F99
:10298000CF54DF4F1883C15BD04085E993E00E94AC
:10299000240583E493E00E9424058401CF54DF4F93
:1029A000B880C15BD040AB2CB12CCD54DF4FB98285
:1029B000A882C35BD040C80188199909CD54DF4F64
:1029C000A880B980C35BD0408A159B050CF042C03B
:1029D000D801DD908D01BFE0BD1520F081E493E0CA
:1029E0000E94240560E170E08D2D0E94A8098FE30C
:1029F00093E00E942405DFCFF10180E8CD54DF4F42
:102A0000B880C35BD040B51468F4D8019D918D01A6
:102A10009083CD54DF4FB880C35BD0405B1450F43B
:102A2000108208C0CD54DF4FB880C35BD0405B102C
:102A3000F0CF8083CD54DF4F2881C35BD0402F5F20
:102A4000CD54DF4F2883C35BD04031962031B1F69F
:102A5000B60154CF0E94B509CD54DF4F488159814A
:102A6000C35BD040B40189E992E00E94B920E3E061
:102A7000F0E0CD54DF4F28813981C35BD0402E5F19
:102A80003F4FC901BF010E948B204901881A990A52
:102A9000C401BF010E948B20660F771F660F771F4E
:102AA0006F5F7F4FADB6BEB6A61AB70A0FB6F894E1
:102AB000BEBE0FBEADBE0DB71EB70F5F1F4F580194
:102AC000F9E98F2EF2E09F2E10E000E0D12CC12C0E
:102AD000CD54DF4F28813981C35BD04027563D4F0D
:102AE0002901310134E0630E711C8414950429F12D
:102AF000D4012D914D01C6010196F701EC0DFD1D8C
:102B0000208383309105B9F4B701C1010E94AE065C
:102B1000D101C501800F911FED91F0E0E652FD4F0C
:102B20002491FC012193CF016A167B06A9F70C5F63
:102B30001F4F90E080E06C01D8CFC114D10499F10F
:102B4000F701EC0DFD1DCF018E199F09039714F4B9
:102B50001192F9CFB701C1010E94AE06C501800FE5
:102B6000911FD101ED91F0E0E652FD4F2491FC015F
:102B70002193CF019D0122193309C216D30694F780
:102B8000C80101968601080F191FF501E00FF11F1A
:102B90002DE3A801481B590B4330510524F40F5F66
:102BA0001F4F2193F6CFF501E00FF11F10828BE14B
:102BB00093E00E942405C5010E94C5090E94B50941
:102BC0008091920290919302019690939302809348
:102BD0009202CB54DF4F88809980C55BD0400FB6FE
:102BE000F8949EBE0FBE8DBE0E945406C454DF4FA3
:102BF000688379838A839B83CC5BD0400E94F508ED
:102C00006B017C018EE10E949D08182F81E594E004
:102C10000E94240512951F7021E030E002C0220FAF
:102C2000331F1A95E2F7032E000C440B550BC70116
:102C3000B6010E94171ECA01B9010E94621F9B01C2
:102C4000AC0160E070E08AE794E40E94BA1E9B0148
:102C5000AC010E94491E20E030E040E85FE30E94A2
:102C6000491E0E94331F03E0609F50011124CC5382
:102C7000DF4FB982A882C45CD04013E0C654DF4F56
:102C80001883CA5BD04008E0C754DF4F0883C95B94
:102C9000D0400E945406C054DF4F688379838A83F2
:102CA0009B83C05CD0408EE10E949D08182F0E943B
:102CB000F5084B015C0112951F7061E070E002C0E5
:102CC000660F771F1A95E2F7072E000C880B990BF9
:102CD0000E94641F6B017C01C501B4010E94621F48
:102CE0009B01AC01C701B6010E94BA1E20E034E28C
:102CF00044E759E40E9419206B017C0181E00E94A5
:102D00009D08CA53DF4F8883C65CD0400E9454069A
:102D10000E943A09CB54DF4F19821882C55BD0401C
:102D2000C954DF4F19821882C75BD04013E003E01B
:102D30000E9440090E9454060E9454069B01AC0167
:102D40002C593F4F4F4F5F4FC953DF4F2883398373
:102D50004A835B83C75CD04067E881E00E94040936
:102D60000E94FC054B015C0182E10E949D08C55454
:102D7000DF4F1882CB5BD040382F3470732E82FD2A
:102D80002DC00E945406C953DF4F288139814A81E2
:102D90005B81C75CD0406217730784079507F0F426
:102DA0000E94FC05681979098A099B090E94621F23
:102DB0002B013C0120E030E040E753E4C701B601BD
:102DC0000E94491E9B01AC01C301B2010E94142064
:102DD000181674F082E10E949D08CECF0E9454061E
:102DE000711042C0115009F0A3CF01E010E044C0BF
:102DF000C554DF4F3881CB5BD0403111EBCF8BE135
:102E00000E949D0890E020919A03203151F52BE813
:102E100030E0821B930B9093B0038093AF03CB54AD
:102E2000DF4F48815981C55BD040480F591FCB54B3
:102E3000DF4F59834883C55BD040C954DF4F888139
:102E40009981C75BD0400196C954DF4F998388832D
:102E5000C75BD04091E0C554DF4F9883CB5BD04037
:102E6000B9CF2DE930E0D5CF82E10E949D08817075
:102E7000015009F062C1182FCB54DF4F888199812E
:102E8000C55BD040C954DF4F68817981C75BD040B2
:102E90000E948B207093B0036093AF03CA53DF4F3F
:102EA0006881C65CD04081E00E9404090E945406FB
:102EB0000E94400911110091AF030E9454066B015A
:102EC0007C0188E494E00E942405C701B601C05447
:102ED000DF4F88809980AA80BB80C05CD040681991
:102EE00079098A099B094AE050E00E94A6090E94DC
:102EF000B509011128C183E494E00E942405CF5450
:102F0000DF4F8880C15BD040882009F476C15EE045
:102F1000E52E0091240121E046E1682D89E992E047
:102F20000E94250A882309F468C10E9454066B0197
:102F30007C018091950290919602A0919702B091A8
:102F400098020196A11DB11D80939502909396025F
:102F5000A0939702B0939802E9E9F2E00FEF1FEF18
:102F60008191182788E09801000F111F37FF04C0D6
:102F700021E2022720E112278150A9F7CF018959C8
:102F80009240CD54DF4F88809980C35BD040881534
:102F9000990530F382EB96E00E94240560E170E031
:102FA000C8010E94AF098091BD038823D9F00E9417
:102FB000B5098FE996E00E942405809194030E9450
:102FC000DA0984E896E00E9424056091BE03062E8B
:102FD000000C770B880B990B0E94EA0989E492E0B8
:102FE0000E9455090E94B50981E696E00E942405D9
:102FF000CF54DF4F9880C15BD040692D70E090E0E6
:1030000080E00E94EA090E94B50983E596E00E94EB
:1030100024056091B1036150770B072E000C880BDB
:10302000990B0E94EA090E94B50985E496E00E9486
:103030002405C701B601C454DF4F88809980AA8057
:10304000BB80CC5BD040681979098A099B090E9432
:10305000EA090E94B50980E396E00E94CC090E942B
:10306000230986E296E00E9424050E9454069701F7
:1030700086010053184F2F4F3F4F48015901861AC0
:10308000970AA80AB90AC501B4014AE050E00E94B3
:10309000A6090E94B5090E9454066C197D098E0983
:1030A0009F09603D774081059105A8F38AE096E08D
:1030B0000E9424056AE070E081E00E94A8090E9455
:1030C000B5090E943A098FE00E949D08682F8DE0A3
:1030D0000E94040960E081E10E9404096CE380E43D
:1030E0000E9404090E94400965E881E00E940409E9
:1030F0000E9454064B015C0112E5810E13E0911E03
:10310000A11CB11C82E10E949D08082F10E004FD63
:1031100021C40E945406681579058A059B0508F0AC
:103120002BC482E10E949D08082F10E061E070E04E
:1031300080E090E00E942106EACF882309F4F8CDD0
:1031400000E011E099CE8FE394E00E9424050E94F4
:103150001C1D27E030E040E050E00E94E51D6B01BF
:103160007C010FEFC01AD00AE00AF00A81E394E074
:103170000E9424056AE070E08C2D0E94A80983E279
:1031800094E00E942405CC53DF4F88809980C45C72
:10319000D040C89CC001C99C900D11246C01990FAE
:1031A000EE08FF08C701B6010E94EA090E94B509AE
:1031B000C701B6010E94210688E194E00E9424051F
:1031C000C754DF4F0881C95BD0400150C754DF4F5F
:1031D0000883C95BD04001115CCDC654DF4F188114
:1031E000CA5BD0401150C654DF4F1883CA5BD04031
:1031F000111149CD8DE094E080CE0E9454066B0100
:103200007C010E94D8088C0189E796E00E94240581
:1032100080E796E00E94240560E170E0C8010E940A
:10322000AF090E94D8088C01112780FF04C083EEEB
:1032300094E00E94240501FF04C08AEC94E00E94FF
:10324000240502FF04C08CEB94E00E94240503FFD8
:1032500004C08FEA94E00E94240504FF04C08DE9B5
:1032600094E00E94240505FF04C08EE894E00E94CB
:10327000240506FF04C081E894E00E9424058091A3
:1032800098039091990390FF04C085E794E00E9411
:103290002405809198039091990391FF04C089E6D9
:1032A00094E00E942405809198039091990392FFE5
:1032B00099CE8AE594E00E94240594CE0E9454069B
:1032C0006093B8037093B9038093BA039093BB03E0
:1032D0000E943A09EF2809F0DBC080E092E0909369
:1032E000990380939803F12C87EF95E00E94CC0915
:1032F00080E00E942B09FF2009F4A9C2A3961FAE0B
:103300001EAEA3978AE10E949D08809395030E94B8
:10331000BC081091960320919A038091A703909185
:10332000A803A091A903B091AA03E090950317FF09
:10333000EBC06BE870E0203111F06DE970E08115B1
:10334000954DAC4FB94108F0DCC087E090E0680FC4
:10335000791F719561957109072E000C880B990BE7
:103360000E94641F4B015C016E2DEE0C770B880BE5
:10337000990B0E94641F9B01AC01C501B4010E941E
:10338000491E4B015C01612F110F770B880B990BC4
:103390000E94641F20E030E040E85EE30E941920B4
:1033A0009B01AC01C501B4010E94491E0E942C1F63
:1033B00060939503E09095030E2D0E2C000C110BDD
:1033C0000E94BC08CF2CD12C1F93EF92282F082EDF
:1033D000000C330B3F938F931F92FF928091B203A7
:1033E0001F928F93809194031F928F9380919203E9
:1033F0001F928F93809193031F928F9380E692E0A8
:103400009F938F938E010F5F1F4F1F930F930E9407
:10341000D120C8010E94C5098CEE95E00E942405C8
:10342000A3961FAE1EAEA3970DB71EB70E5E1F4F1D
:103430000FB6F8941EBF0FBE0DBFA3968EAD9FAD05
:10344000A3978C159D050CF091C087569D4FDC010C
:103450008C91803120F48AEE95E00E942405A39699
:10346000EEADFFADA397E756FD4F60E170E08081C0
:103470000E94A80988EE95E00E942405A3968EADCF
:103480009FADA3970196A3969FAF8EAFA397D5CF7D
:103490000E94D8088035910529F08EEF94E00E94B3
:1034A000CC0921CF83E10E949D08813500F58093EE
:1034B000910380E591E00E94DA0360E080918C0343
:1034C0000E947F0580E00E94960809E912E02091A1
:1034D0009103C801895992402817190651F048F004
:1034E00080E00E949608D8018D938D01F0CF80E591
:1034F000DECF61E080918C030E947F05F090910304
:10350000F3CE90E080E023CF0BE810E0203111F003
:103510000DE910E0D12CC12C8115954DAC4FB9416E
:1035200018F497E0C92ED12C6E2DEE0C770B880B7A
:10353000990B0E94641F20E030E040E851E40E94B3
:10354000192020E030E040E751E40E94BA1E4B0110
:103550005C010C0D1D1D66277727601B710B072E64
:10356000000C880B990B0E94641F1ACF0E94B509AA
:10357000A396EEADFFADA397E756FD4F108289E904
:1035800092E00E94C509A3961FAE1EAEA3970E94AB
:10359000B5098FEE92E00E945F05A3966EAD7FADF8
:1035A000A39777FD5AC067567D4FFB0180818F320C
:1035B00009F053C08181803409F04FC04FE050E0E2
:1035C000C1010E94C22087ED95E00E942405C1013F
:1035D0000E94C5090E94B50982E090E0A3969FAFC2
:1035E0008EAFA397D10112968C91893409F4C2C091
:1035F0008C3409F4E4C0813409F024C183E090E004
:10360000A3969FAF8EAFA397B101CE018F599F4F65
:103610000E94E80A6B017C01BFEFCB16D104E104E4
:10362000F10411F00CF0A1C0E2E0CE16D104E104E7
:10363000F10414F4C0902401C0922401C092C40388
:10364000C092BC0380EC95E00E9424056AE070E023
:103650008C2D0E94A8090E94B5098EE595E00E9474
:10366000240581E00E949D08682F687F81E00E9408
:10367000040961E070E080E090E00E9421060E9471
:1036800054064B015C010E94160A6091E902709198
:10369000EA028091EB029091EC020E94160A0E94CD
:1036A00054060091E9021091EA022091EB02309158
:1036B000EC02061717072807390770F40E94540612
:1036C00068517C4F8F4F9F4F6093E9027093EA02DD
:1036D0008093EB029093EC02C090E902D090EA0252
:1036E000E090EB02F090EC02C818D908EA08FB0859
:1036F000C701B6010E94160A8FEE92E00E945F0594
:103700008FEE92E00E945F0565E070E080E090E05F
:103710000E942106C114D104E104F10409F4FEC0A1
:10372000FFEDCF16FFE1DF06E104F10408F492C0DB
:1037300030E020E050E040E069E070E084E992E0B1
:103740000E9460060EEDC01A0FE1D00AE108F108F0
:103750008FE395E00E9424058FEE92E00E945F05C2
:1037600061E070E080E090E0D3CFC12CD12C7601F5
:10377000CA9462CF83E090E0A3969FAF8EAFA397E9
:10378000B101CE018F599F4F0E94E80A6B017C0165
:103790001C141D041E041F0424F0C090ED02D090E0
:1037A000EE02D092EE02C092ED028DEA95E00E9408
:1037B00024056AE070E0C6010E94AF094CCF83E0A7
:1037C00090E0A3969FAF8EAFA397B101CE018F5922
:1037D0009F4F0E94E80A162FE72EF82E092F8AE93C
:1037E00095E00E942405612F7E2D8F2D902F0E9441
:1037F000EA090E94B50961E0812F0E94CB0561E0D2
:10380000812F0E947F0564EF71E080E090E00E94CC
:10381000210660E0812F0E947F0564EF71E080E067
:1038200090E00E94210661E0812F0E947F0564EFF5
:1038300071E080E090E00E94210660E0812F0E940C
:103840007F050BCF88E895E00E94240506CF8BE723
:1038500095E0FACF1FE3C11610E1D106E104F104AF
:1038600098F030E020E050E040E068E070E084E96B
:1038700092E00E9460062EE3C21A20E1D20AE1081B
:10388000F1088DE395E066CF3FE6C31638E0D30636
:10389000E104F10498F030E020E050E040E067E01F
:1038A00070E084E992E00E9460064EE6C41A48E0A7
:1038B000D40AE108F1088BE395E04CCF57E8C51630
:1038C00054E0D506E104F10498F030E020E050E047
:1038D00040E066E070E084E992E00E94600686E8DD
:1038E000C81A84E0D80AE108F10889E395E032CFEC
:1038F000C701B6010E94210686E395E00E942405D7
:103900004AE050E0C701B6010E94A60983E395E0B2
:103910000E942405C12CD12C76011ECF81E495E0B4
:103920000E94240581E00E949D08682F616081E06B
:103930000E94040980E090E0892B11F40C94961009
:103940000E94A104882311F40C9496100E94000098
:103950000C9485100E9454066093B4037093B503D1
:103960008093B6039093B7034B015C01A0E18A0EEC
:10397000A7E29A1EA11CB11C780120E4E222FF24D8
:1039800006FD9CCC0E945406681579058A059B05A6
:1039900008F094CC82E10E949D08082F10E0ECCF43
:1039A0008F929F92AF92BF92CF92DF92EF92FF924F
:1039B000CF93DF93EC01688179818A819B816115C6
:1039C00071058105910521F464E279ED8BE597E0BD
:1039D0002DE133EF41E050E00E94E51D49015A011D
:1039E0009B01AC01A7EAB1E40E94041E6B017C01BB
:1039F000ACEEB4EFA50194010E94121EC60ED71EB4
:103A0000E81EF91EF7FE06C081E0C81AD108E108D9
:103A100080E8F80AC882D982EA82FB82C701B6012F
:103A20009F77DF91CF91FF90EF90DF90CF90BF9085
:103A3000AF909F908F9008958F929F92AF92BF9278
:103A4000CF92DF92EF92FF92609125017091260153
:103A500080912701909128016115710581059105DB
:103A600021F464E279ED8BE597E02DE133EF41E05D
:103A700050E00E94E51D49015A019B01AC01A7EAF3
:103A8000B1E40E94041E6B017C01ACEEB4EFA50111
:103A900094010E94121EC60ED71EE81EF91EF7FEE4
:103AA00006C081E0C81AD108E10880E8F80AC0928F
:103AB0002501D0922601E0922701F0922801C7014A
:103AC000B6019F77FF90EF90DF90CF90BF90AF90BF
:103AD0009F908F90089560932501709326018093A5
:103AE00027019093280108951F93FC0199278827A7
:103AF000BC01E89411911032E9F3193010F01E3036
:103B0000C8F31B3251F01D3249F4689406C00E947C
:103B1000A61D610F711D811D911D119110531A3049
:103B2000B0F33EF490958095709561957F4F8F4FDF
:103B30009F4F1F910895BB274A3031F4992322F4F7
:103B4000BDE2909581959F4F0C94BC1D592F482F35
:103B5000372F262F660F771F881F991F660F771F35
:103B6000881F991F620F731F841F951F660F771F91
:103B7000881F991F0895BB27FB015527AA27880F87
:103B8000991FAA1FA41710F0A41B83955051B9F7D1
:103B9000A05DAA3308F0A95DA193009779F7B11150
:103BA000B1931192CB010C94D51DDC01FC01672F60
:103BB00071917723E1F7329704C07C916D93708304
:103BC0006291AE17BF07C8F30895052E97FB1EF448
:103BD00000940E94FC1D57FD07D00E94171E07FC91
:103BE00003D04EF40C94FC1D5095409530952195D2
:103BF0003F4F4F4F5F4F0895909580957095619519
:103C00007F4F8F4F9F4F08950E94391EA59F900DA3
:103C1000B49F900DA49F800D911D11240895B7FFAE
:103C20000C94041E0E94041E821B930B0895A1E2B3
:103C30001A2EAA1BBB1BFD010DC0AA1FBB1FEE1F26
:103C4000FF1FA217B307E407F50720F0A21BB30B71
:103C5000E40BF50B661F771F881F991F1A9469F7ED
:103C600060957095809590959B01AC01BD01CF0149
:103C70000895A29FB001B39FC001A39F700D811D45
:103C80001124911DB29F700D811D1124911D089565
:103C90005058BB27AA270E94601E0C94DA1F0E946E
:103CA000CC1F38F00E94D31F20F039F49F3F19F445
:103CB00026F40C94C91F0EF4E095E7FB0C94C31F87
:103CC000E92F0E94EB1F58F3BA17620773078407A6
:103CD000950720F079F4A6F50C940D200EF4E095EC
:103CE0000B2EBA2FA02D0B01B90190010C01CA01B6
:103CF000A0011124FF27591B99F0593F50F4503E61
:103D000068F11A16F040A22F232F342F4427585F52
:103D1000F3CF469537952795A795F0405395C9F76A
:103D20007EF41F16BA0B620B730B840BBAF0915022
:103D3000A1F0FF0FBB1F661F771F881FC2F70EC0C1
:103D4000BA0F621F731F841F48F487957795679594
:103D5000B795F7959E3F08F0B0CF9395880F08F080
:103D60009927EE0F9795879508950E949F1F08F455
:103D700081E008950E94CE1E0C94DA1F0E94D31F8A
:103D800058F00E94CC1F40F029F45F3F29F00C94BA
:103D9000C31F51110C940E200C94C91F0E94EB1FDD
:103DA00068F39923B1F3552391F3951B550BBB276A
:103DB000AA2762177307840738F09F5F5F4F220FAF
:103DC000331F441FAA1FA9F335D00E2E3AF0E0E8A6
:103DD00032D091505040E695001CCAF72BD0FE2FF0
:103DE00029D0660F771F881FBB1F26173707480784
:103DF000AB07B0E809F0BB0B802DBF01FF2793583C
:103E00005F4F3AF09E3F510578F00C94C31F0C941D
:103E10000E205F3FE4F3983ED4F38695779567953F
:103E2000B795F7959F5FC9F7880F911D9695879570
:103E300097F90895E1E0660F771F881FBB1F62178F
:103E400073078407BA0720F0621B730B840BBA0B4D
:103E5000EE1F88F7E09508950E94331F6894B11112
:103E60000C940E2008950E94F31F88F09F5798F03D
:103E7000B92F9927B751B0F0E1F0660F771F881F6F
:103E8000991F1AF0BA95C9F714C0B13091F00E9489
:103E90000D20B1E008950C940D20672F782F88270E
:103EA000B85F39F0B93FCCF3869577956795B395B0
:103EB000D9F73EF490958095709561957F4F8F4F1F
:103EC0009F4F0895E89409C097FB3EF49095809524
:103ED000709561957F4F8F4F9F4F9923A9F0F92FD0
:103EE00096E9BB279395F695879577956795B7954E
:103EF000F111F8CFFAF4BB0F11F460FF1BC06F5F34
:103F00007F4F8F4F9F4F16C0882311F096E911C045
:103F1000772321F09EE8872F762F05C0662371F066
:103F200096E8862F70E060E02AF09A95660F771F7A
:103F3000881FDAF7880F9695879597F90895990F56
:103F40000008550FAA0BE0E8FEEF16161706E80763
:103F5000F907C0F012161306E407F50798F0621B84
:103F6000730B840B950B39F40A2661F0232B242B59
:103F7000252B21F408950A2609F4A140A6958FEF78
:103F8000811D811D089597F99F6780E870E060E0CA
:103F900008959FEF80EC089500240A9416161706E2
:103FA00018060906089500240A941216130614062A
:103FB00005060895092E0394000C11F4882352F08D
:103FC000BB0F40F4BF2B11F460FF04C06F5F7F4F45
:103FD0008F4F9F4F089557FD9058440F551F59F02C
:103FE0005F3F71F04795880F97FB991F61F09F3FE6
:103FF00079F087950895121613061406551FF2CF0F
:104000004695F1DF08C0161617061806991FF1CF5E
:1040100086957105610508940895E894BB27662785
:104020007727CB0197F908950E949F1F08F48FEF1F
:1040300008950E942C200C94DA1F0E94CC1F38F0A7
:104040000E94D31F20F0952311F00C94C31F0C94F1
:10405000C91F11240C940E200E94EB1F70F3959F32
:10406000C1F3950F50E0551F629FF001729FBB276F
:10407000F00DB11D639FAA27F00DB11DAA1F649F0B
:104080006627B00DA11D661F829F2227B00DA11DBE
:10409000621F739FB00DA11D621F839FA00D611D44
:1040A000221F749F3327A00D611D231F849F600D65
:1040B000211D822F762F6A2F11249F5750409AF08E
:1040C000F1F088234AF0EE0FFF1FBB1F661F771F1A
:1040D000881F91505040A9F79E3F510580F00C94E5
:1040E000C31F0C940E205F3FE4F3983ED4F38695F3
:1040F00077956795B795F795E7959F5FC1F7FE2B85
:10410000880F911D9695879597F908950E949F1F96
:10411000880B990B089597FB072E16F4009407D08F
:1041200077FD09D00E94A52007FC05D03EF49095AC
:1041300081959F4F0895709561957F4F0895EE0F7B
:10414000FF1F0590F491E02D0994AA1BBB1B51E1C0
:1041500007C0AA1FBB1FA617B70710F0A61BB70BF7
:10416000881F991F5A95A9F780959095BC01CD019C
:104170000895FB01DC0102C001900D9241505040B6
:10418000D8F70895FB01DC014150504048F0019000
:104190000D920020C9F701C01D9241505040E0F738
:1041A0000895AEE0B0E0E7EDF0E20C9480230D89D5
:1041B0001E8986E08C831A8309838FEF9FE79E8395
:1041C0008D83AE01475E5F4F6F89788DCE0101967A
:1041D0000E94F4202F813885020F131FF8011082EE
:1041E0002E96E4E00C949C23ABE0B0E0EAEFF0E222
:1041F0000C9472237C013B018A01FC011782168218
:10420000838181FFC8C1CE0101965C01F7019381D2
:10421000F30193FD859193FF81913F01882309F478
:1042200053C1853239F493FD859193FF81913F010C
:10423000853229F4B70190E00E94E422E7CF912C67
:10424000212C312CFFE1F31538F08B3211F190F471
:10425000803209F1833229F137FC3CC020ED280F70
:104260002A3050F536FE20C08AE0989E200D112499
:10427000922E06C08D3291F0803371F7689430F839
:10428000F30193FD859193FF81913F018111DACF75
:1042900021C0689431F8689432F8F2CF689433F80A
:1042A000EFCF689434F8ECCFEAE02E9E200D112475
:1042B000222E689435F8E4CF8E3229F436FC04C1FE
:1042C000689436F8DDCF8C3619F4689437F8D8CF77
:1042D0008836B1F2982F9F7D95549330E0F0833665
:1042E000A1F18337C1F1833509F063C02801F2E001
:1042F0004F0E511CF801C080D180692D70E036FC52
:1043000002C06FEF7FEFC6010E94CE224C0168947D
:1043100037F882010AC00C5F1F4FFFE3F98388243E
:104320008394912C6501E89437F833FE2DC0522C0C
:104330008114910471F5552009F468CFB70180E22A
:1043400090E00E94E4225A94F6CFF801808189839C
:104350000E5F1F4FE4CF2801F2E04F0E511CF80111
:10436000C080D180692D70E036FC02C06FEF7FEF16
:10437000C6010E94D9224C018201D5CFB70180E24B
:1043800090E00E94E4222A942814190409F0B0F75E
:10439000CECFF60137FC859137FE81916F01B701D1
:1043A00090E00E94E42251105A94F1E08F1A910893
:1043B000BFCF843619F0893609F077C0F80137FE8F
:1043C0006BC060817181828193810C5F1F4FF32DDF
:1043D000FF763F2E97FF09C0909580957095619567
:1043E0007F4F8F4F9F4F689437F82AE030E0A50148
:1043F0000E941423C82ECA188C2C432C36FE0CC0E5
:10440000E89440F8C91440F434FE05C032FC03C0FF
:10441000F32DFE7E4F2E892C44FE95C0FE01EC0D3F
:10442000F11D8081803309F087C0242D297E422E22
:10443000842D8870582E43FC95C040FE8FC09C2C64
:10444000821418F42C0C922C981844FE91C0B701D9
:1044500080E390E00E94E42242FE09C088E790E0F9
:1044600041FE02C088E590E0B7010E94E422C91431
:1044700008F48AC0CA94D12C9FEFC91AD90ACA0C71
:10448000DB1CF60182916F01B70190E00E94E422EB
:10449000AC14BD04B1F74FCF60817181072E000CC1
:1044A000880B990B0E5F1F4F92CFD32CE894D4F852
:1044B0002AE030E0853739F1232D297FD22E8F363F
:1044C00001F148F48835A9F0F701868197812B9690
:1044D000E2E10C948E23803749F08837A9F7D4FEA7
:1044E00002C06894D2F820E130E00DC06894D4F89E
:1044F000F6CF34FE03C0822F8660D82E20E132E052
:1045000002C028E030E0F801D7FE0FC06081718161
:10451000828193810C5F1F4FA5010E941423C82E36
:10452000CA183D2CE89437F867CF6081718190E01C
:1045300080E00E5F1F4FF0CF42FC02C0839478CF23
:104540008394839475CF842D867809F471CFF6CF48
:10455000B70180E290E00E94E42283948214C0F3C9
:10456000512C73CF522C5818821408F46ECFF8CF08
:10457000842D867809F47BCF8BE241FE80E247FCF4
:104580008DE2B70190E071CFB70180E390E00E9427
:10459000E4229A946CCF8FEF9FEF99CFFC010590A6
:1045A000615070400110D8F7809590958E0F9F1F35
:1045B0000895FC016150704001900110D8F780957A
:1045C00090958E0F9F1F08950F931F93CF93DF93A6
:1045D000182F092FEB018B8181FD09C01FEF0FEF11
:1045E000812F902FDF91CF911F910F91089582FF1E
:1045F00014C02E813F818C819D81281739073CF49E
:10460000E881F981CF0101969983888310838E8197
:104610009F8101969F838E83E3CFE885F985812F63
:104620000995892BA1F3DACFFA01AA27283051F195
:10463000203181F1E8946F936E7F6E5F7F4F8F4FD3
:104640009F4FAF4FB1E03ED0B4E03CD0670F781F32
:10465000891F9A1FA11D680F791F8A1F911DA11D17
:104660006A0F711D811D911DA11D20D009F4689450
:104670003F912AE0269F11243019305D3193DEF6F8
:10468000CF010895462F4770405D4193B3E00FD0AE
:10469000C9F7F6CF462F4F70405D4A3318F0495D99
:1046A00031FD4052419302D0A9F7EACFB4E0A6957C
:1046B0009795879577956795BA95C9F7009761059E
:1046C000710508959B01AC010A2E069457954795F4
:1046D00037952795BA95C9F7620F731F841F951FE9
:1046E000A01D08952F923F924F925F926F927F92FA
:1046F0008F929F92AF92BF92CF92DF92EF92FF92F2
:104700000F931F93CF93DF93CDB7DEB7CA1BDB0B9D
:104710000FB6F894DEBF0FBECDBF09942A88398842
:1047200048885F846E847D848C849B84AA84B98449
:10473000C884DF80EE80FD800C811B81AA81B98155
:10474000CE0FD11D0FB6F894DEBF0FBECDBFED0169
:064750000895F894FFCF6C
:104756002B7E151628AED2A6ABF7158809CF4F3C8F
:104766002B7E151628AED2A6ABF7158809CF4F3C7F
:104776005443000006010000002A2A2A2A2A2A0099
:10478600000000637C777BF26B6FC53001672BFE00
:10479600D7AB76CA82C97DFA5947F0ADD4A2AF9C91
:1047A600A472C0B7FD9326363FF7CC34A5E5F17168
:1047B600D8311504C723C31896059A071280E2EB71
:1047C60027B27509832C1A1B6E5AA0523BD6B32901
:1047D600E32F8453D100ED20FCB15B6ACBBE394A8E
:1047E6004C58CFD0EFAAFB434D338545F9027F5095
:1047F6003C9FA851A3408F929D38F5BCB6DA211094
:10480600FFF3D2CD0C13EC5F974417C4A77E3D642B
:104816005D197360814FDC222A908846EEB814DE5B
:104826005E0BDBE0323A0A4906245CC2D3AC6291E5
:1048360095E479E7C8376D8DD54EA96C56F4EA65CF
:104846007AAE08BA78252E1CA6B4C6E8DD741F4BCE
:10485600BD8B8A703EB5664803F60E613557B9863C
:10486600C11D9EE1F8981169D98E949B1E87E9CEE9
:104876005528DF8CA1890DBFE6426841992D0FB0FE
:1048860054BB160506070800000000D70437046469
:10489600045F059504730487040D0A006E616E00BB
:1048A600696E66006F7666005C2125732F2573009E
:1048B6005E7025642C25642C25642C25642C2564C7
:0848C6002C25642C25640A0076
:00000001FF
